:020000040800F2
:10000000000002200D480008F1420008F3420008F9
:10001000F5420008F7420008F9420008000000001D
:10002000000000000000000000000000912E000809
:10003000FB42000800000000212F0008852F000867
:100040005D4800085D4800085D4800085D480008FC
:100050005D4800085D4800085D4800085D480008EC
:100060005D4800085D4800085D4800085D480008DC
:100070005D4800085D4800085D4800085D480008CC
:100080005D4800085D4800085D4800085D480008BC
:100090005D4800085D4800085D4800085D480008AC
:1000A0005D4800085D4800085D4800085D4800089C
:1000B0005D4800085D4800085D4800085D4800088C
:1000C0005D4800085D4800085D4800085D4800087C
:1000D0005D4800085D4800085D4800085D4800086C
:1000E000FD4200085D4800085D4800085D480008C2
:1000F0005D4800085D4800085D4800085D4800084C
:100100005D4800085D4800085D4800085D4800083B
:100110005D4800085D480008154300085D48000878
:100120005D4800085D4800085D4800085D4800081B
:100130005D4800085D4800085D4800085D4800080B
:100140005D4800085D4800085D480008214300083C
:100150005D4800085D4800085D4800085D480008EB
:100160005D4800085D4800085D4800085D480008DB
:100170005D4800085D4800085D4800080000000078
:080180005D4800085D4800081D
:1001900010B5054C237833B9044B13B10448AFF3C1
:1001A00000800123237010BDE0010020000000004A
:1001B000A44A000808B5034B1BB103490348AFF339
:1001C000008008BD00000000E4010020A44A0008EF
:1001D00053B94AB9002908BF00281CBF4FF0FF31AE
:1001E0004FF0FF3000F07AB9ADF1080C6DE904CEA4
:1001F00000F006F8DDF804E0DDE9022304B0704702
:100200002DE9F0478C460D460446089E002B51D13F
:100210008A4217466DD9B2FA82FEBEF1000F0BD0AA
:10022000CEF1200C01FA0EF520FA0CFC02FA0EF7C2
:100230004CEA050C00FA0EF44FEA174A250CBCFBF9
:10024000FAF81FFA87F90AFB18CC45EA0C4508FBB7
:1002500009F3AB420AD9ED1908F1FF3280F023818E
:10026000AB4240F22081A8F102083D44ED1AA4B24D
:10027000B5FBFAF00AFB105544EA054400FB09F906
:10028000A14509D9E41900F1FF3380F00A81A145A5
:1002900040F2078102383C44A4EB090440EA0840DC
:1002A0000021002E61D024FA0EF400233460736024
:1002B000BDE8F0878B4207D9002E54D0002186E894
:1002C00021000846BDE8F087B3FA83F1002940F029
:1002D0008E80AB4202D3824200F2FA80841A65EB30
:1002E00003050120AC46002E3FD086E81010BDE883
:1002F000F08712B90127B7FBF2F7B7FA87FEBEF114
:10030000000F34D1EB1B3A0C1FFA87FC0121B3FB21
:10031000F2F8250C02FB183345EA03450CFB08F301
:10032000AB4207D9ED1908F1FF3002D2AB4200F21F
:10033000D1808046ED1AA3B2B5FBF2F002FB105556
:1003400043EA05440CFB00FCA44507D9E41900F17D
:10035000FF3302D2A44500F2B8801846A4EB0C0487
:1003600040EA08409DE731463046BDE8F087CEF1CF
:10037000200405FA0EF307FA0EF720FA04F83A0CF7
:1003800025FA04F448EA0308B4FBF2F14FEA1845F1
:1003900002FB11441FFA87FC45EA044501FB0CF3FC
:1003A000AB4200FA0EF409D9ED1901F1FF3080F0EB
:1003B0008A80AB4240F2878002393D44EB1A1FFA33
:1003C00088F5B3FBF2F002FB103345EA034500FB6E
:1003D0000CF3AB4207D9ED1900F1FF386FD2AB42F5
:1003E0006DD902383D44EB1A40EA01418FE7C1F173
:1003F000200722FA07F88B4005FA01F448EA0303C4
:1004000020FA07FE4FEA134CFD404EEA040EB5FBFE
:10041000FCF94FEA1E440CFB19551FFA83F844EA15
:10042000054509FB08F4AC4202FA01F200FA01FAB0
:1004300008D9ED1809F1FF3043D2AC4241D9A9F1F6
:1004400002091D442D1B1FFA8EFEB5FBFCF00CFBB0
:1004500010554EEA054400FB08F8A04507D9E418FA
:1004600000F1FF3529D2A04527D902381C4440EAC3
:100470000940A4EB0804A0FB02894C45C6464D4642
:1004800015D312D056B1BAEB0E0364EB050404FA8F
:1004900007F7CB401F43CC40376074600021BDE8B4
:1004A000F0871846F8E69046E0E6C245EAD2B8EB97
:1004B000020E69EB03050138E4E72846D7E740461A
:1004C00091E78146BEE7014678E702383C4445E7BC
:1004D000084608E7A8F102083D442BE7704700BF33
:1004E00008B50B4B1A6842F400721A601A6842F49D
:1004F00080621A601A6842F480721A60032000F069
:100500002FF8002003F0B6FE03F092FE002008BD95
:10051000003C0240034A044B11681B780B441360F3
:10052000704700BFCC43002000000020014B18683A
:10053000704700BFCC43002038B50446FFF7F6FFF4
:10054000631C1CBF054B1B78054618BFE418FFF75A
:10055000EDFF401B8442FAD838BD00BF00000020E8
:10056000074AD36823F4E0631B041B0C43F0BF630A
:10057000000243F4003300F4E0600343D3607047AB
:1005800000ED00E0174B30B5DC68C4F30224C4F181
:100590000703251D042B28BF0423062D4FF001055A
:1005A00005FA03F303F1FF338CBF033C0024194029
:1005B000A14005FA04F4013C2240002842EA01026D
:1005C0004FEA0212ADBF00F1604000F00F00064B91
:1005D00000F56140B5BFD2B2D2B21A5480F8002300
:1005E00030BD00BF00ED00E014ED00E0002808DBA6
:1005F0004209012300F01F0003FA00F0014B43F809
:100600002200704700E100E02DE9F04F85B00B6853
:10061000DFF8AC81684ADFF8AC91019300234FF01A
:10062000010E019C0EFA03FE0EEA0406B64540F0E8
:10063000AE804C6824F01007022F16D14FEAD30A7F
:1006400000EB8A0A03F0070BDAF820504FEA8B0B15
:100650004FF00F0C0CFA0BFC25EA0C0C0D6905FA97
:100660000BF545EA0C05CAF820504FEA430A03256A
:10067000D0F800B005FA0AF5ED4304F0030C0BEADC
:10068000050B0CFA0AFC013F4CEA0B0C012FC0F8D9
:1006900000C011D8876807EA050BCF6807FA0AFC83
:1006A0004CEA0B078760476827EA0E0EC4F3001771
:1006B0009F4047EA0E074760C7683D408F6807FACA
:1006C0000AF73D43C560E50061D54FF0000BCDF85A
:1006D0000CB0D8F84470394D47F48047C8F84470DE
:1006E000D8F8447007F480470397039F23F003076B
:1006F00007F1804707F59C3703F0030CD7F808A0F3
:100700004FEA8C0C4FF00F0E0EFA0CFEA8422AEAAC
:100710000E0E43D005F58065A84241D005F58065F1
:10072000A8423FD005F58065A8423DD005F580651B
:10073000A8423BD048453BD005F50065A84239D0DA
:1007400005F58065A84214BF0825072505FA0CF5B4
:1007500045EA0E05BD601568F74314F4803F0CBFF1
:100760003D4035431560556814F4003F0CBF3D40D3
:1007700035435560956814F4801F0CBF3D403543E8
:100780009560D568A40254BF3D403543D560013320
:10079000102B7FF444AF05B0BDE8F08F5D46D5E780
:1007A0000125D3E70225D1E70325CFE70425CDE7CF
:1007B0000525CBE70625C9E7003C014000000240C3
:1007C00000380240001402400369194214BF01209E
:1007D000002070470AB1816170470904FBE7436953
:1007E00031EA030308BF09048161704708B5044B6F
:1007F0005969014202D0586103F018FC08BD00BFDE
:10080000003C0140F0B504468BB060B390F8BD33B6
:10081000056803F0FF021BB980F8BC2303F02AFE31
:10082000032384F8BD33EB6B254613F4807355F82E
:10083000100B08BF236101F021F90FCD6E460FC6E2
:100840000FCD0FC695E8030086E803002546271D57
:1008500097E80E0055F8100B01F056F8064620B147
:10086000022384F8BD33012550E00146206801F0E1
:100870000BF93046D4F804E01C264FF0010C014679
:10088000C2B2964500F101001CD800231C2619466F
:10089000D8B2864503F1010322D80FCD6E460FC6AC
:1008A0000FCD0FC695E8030086E8030097E80E0019
:1008B000206801F02BF90123054600B3022284F8D9
:1008C000BD23D0E706FB024383F83DC083F83C20FC
:1008D000A3F8422083F83F10596499641965CFE763
:1008E00006FB004282F8FD1182F8FC0182F8FF113C
:1008F000C2F80412C2F80812C2F81012C8E784F84D
:10090000380084F8BD33206801F052FC28460BB053
:10091000F0BD90F8BC33012B10B5044616D001236E
:10092000006884F8BC33A36A012B06D1A369012BAC
:100930001EBF836B43F48033836301F02DFC20687A
:1009400001F096F8002084F8BC0310BD022010BD11
:100950002DE9F04F066887B00446304601F063FC8D
:100960000290002840F02281206801F02DFC002830
:1009700000F01C81206801F027FC830748BF226833
:10098000206842BF536903F00203536101F01CFC6D
:10099000070300F10E81206801F016FC45030CD519
:1009A000206801F01DFC2546834606F5106A4FF0CD
:1009B0000009BBF1000F40F0BC81206801F004FC8D
:1009C000002815DAD6F8043823F00103C6F80438F5
:1009D00094F8F433012B40F04182002184F8F413A1
:1009E000204600F0BFFB2268536903F000435361C7
:1009F000206801F0E9FB00050BD5D6F80838D907C7
:100A000002D5204603F0A6FD2268536903F4006373
:100A10005361206801F0D8FBC20435D506F50065A6
:100A20006B68206823F001036B60102101F044F82B
:100A3000606806F510634FF67F31029A824240F0FB
:100A40001182EB6943F00113EB61236B002B00F083
:100A50001B82D5F8843043F00B03C5F884306B6CEF
:100A600043F00B036B64D6F80038217C206823F434
:100A7000FE63C6F8003804F5717201F0F3FB2268DA
:100A8000536903F480535361206801F09DFB830494
:100A900016D5206801F0CBFB206801F0FBF8E06080
:100AA000256800F0ABFD227B0146284600F06CFF74
:100AB000204603F03CFD2268536903F40053536160
:100AC000206801F081FBC7062AD52268936923F0CC
:100AD00010039361356AC5F34343022B05F00F07FA
:100AE00040F0DD8147F6F0731D4214D01C2303FB58
:100AF0000747C5F30A152A46D7F80812304601F011
:100B0000D5FAD7F808322B44C7F80832D7F8143290
:100B10001D44C7F814522268936943F0100393618F
:100B2000206801F051FB060707D5204603F0FBFCC7
:100B30002268536903F008035361206801F044FB05
:100B4000C50208D50021204603F024FD2268536920
:100B500003F480135361206801F036FB800208D54E
:100B60000021204603F012FD2268536903F40013AC
:100B70005361206801F028FB410007D5204603F0AF
:100B80000DFD2268536903F080435361206801F032
:100B90001BFB42070AD523685D686B0702D5204618
:100BA00003F000FD23685A6815435D6007B0BDE897
:100BB000F08F2068DFF808B301F00AFB06F5306516
:100BC0008246A0460027BAF1000F3FF4E4AE1AF0C7
:100BD000010F00F0A780FAB211462068039201F0DD
:100BE00007FB10F0010F8146039A4CD00123AB6044
:100BF00023682069D3F840E003F5306303EB471323
:100C00000128996854D1080714D5DE4504D90A048F
:100C100044BF4FF400429A602046039303F06CFCFB
:100C200004F571720121206801F01CFB039B08226E
:100C30009A6028E0880601D52022F9E711F0280FF4
:100C400021D1DE4504D9090402D54FF40042EFE773
:100C50001B69D8F80412C3F31203CB1AC8F8143274
:100C6000D8F808321944C8F808122046114603F093
:100C700049FC47B9D4F810322BB904F5717201213F
:100C8000206801F0EFFA19F0080F33D023682069CB
:100C90001A6C03F5306303EB47130128996815D1EB
:100CA0005A4516D9090444BF4FF40041996010E039
:100CB0008248864505D10804C7D4880644BF202150
:100CC00099601146204603F01DFCDCE77B48824218
:100CD000E8D02046039203F00FFC039A5A4507D947
:100CE0002169012904D104F57172206801F0BAFA72
:100CF0000823AB6019F0100F1CBF1023AB6019F074
:100D0000200F09D02169012904D104F571722068EE
:100D100001F0A8FA2023AB6019F4005F1CBF4FF468
:100D20000053AB6001374FEA5A0A203508F11C081E
:100D300049E71BF0010F00F089805FFA89F319463B
:100D40002068039301F05DFAC307074624D5D6F85F
:100D500034380399012009F00F0200FA02F223EA65
:100D60000203C6F834382369CAF80800834201BF79
:100D7000AB6C6A6C9B18AB64204603F0CCFB21691A
:100D8000012909D1B9F1000F06D1236D23B904F56A
:100D90007172206801F066FA380744BF0823CAF868
:100DA0000830F90644BF1023CAF808307A0644BF59
:100DB0004023CAF80830BB0744BF0223CAF80830F2
:100DC0003F0643D56B6D2F6DBB423FD8FF1A6B6C4E
:100DD000226804929F4228BF1F4602F51063033722
:100DE00003EB4913BF080593059B6A6D9B699BB292
:100DF000BB422B6D28D3934226D963B9049B09F0DB
:100E00000F01D3F83428012000FA01F122EA01028F
:100E1000C3F834281AE0A3EB02086B6C039A049819
:100E2000984528BF9846237C0093A96C1FFA88F345
:100E300001F03AF8AB6C4344AB646B6D08F1030707
:100E40004344BF086B65CFE79342D7D909F1010945
:100E50004FEA5B0B1C350AF1200AAAE5204603F095
:100E600091FBC0E599601A6822F400121A60C3F879
:100E70000812D3F8002222F40012C3F80022029ACA
:100E8000013202922033D8E56B6943F4005343F0FA
:100E90002B036B612B6943F00B032B61E3E5062BFE
:100EA0007FF439AE082204F57171304601F0FEF886
:100EB0001C2303FB0747C5F30A1527E60A31544FE5
:100EC0000A30544F90F8BC23012A10B504460BD0C9
:100ED000012280F8BC2384F83810006801F04CF936
:100EE000002084F8BC0310BD022010BD70B504467C
:100EF00001F00F0011F0800F4FF01C06C5B206FB89
:100F0000054115BF06FB054506FB05453C3101F5CE
:100F1000FE7115BF0126002685F83D6085F8FD614C
:100F20008A604A78CB70C0B2087002B1C880022BC8
:100F300004BF00230B7194F8BC33012B09D00123AB
:100F400084F8BC33206800F0B0FE002084F8BC03B5
:100F500070BD022070BD01F00F03DAB210B5044677
:100F60001C2011F0800F00FB024119BF3C3100FB37
:100F7000024200FB024201F5FE7115BF0120002074
:100F800082F83D0082F8FD010B7094F8BC33012B10
:100F900009D0012384F8BC33206800F0C9FE00208A
:100FA00084F8BC0310BD022010BD38B501F00F0558
:100FB0001C2404FB050104FB050401F5FE71C4F8C3
:100FC00010320023C4F80822C4F8143284F8FD312A
:100FD00084F8FC5103690068012B08BFC4F80C2297
:100FE000DAB21DB900F0D6FE002038BD00F070FF67
:100FF000FAE71C2301F00F0103FB0101D1F81402F1
:10100000704738B501F00F051C2404FB050104FBF3
:1010100005043C312365002363650123A26484F841
:101020003D3084F83C5003690068012B08BFE2643E
:10103000DAB21DB900F0AEFE002038BD00F048FF66
:10104000FAE738B5436801F00F059D4204462ED8F3
:1010500011F0800F4FF01C021FD002FB050102FBB4
:10106000050301223C3381F83D2001229A701D7056
:1010700094F8BC1391421CD084F8BC231946206814
:1010800001F022F82DB904F57172217C206801F07D
:10109000E9F8002084F8BC0338BD02FB010302FB21
:1010A0000101002203F5FE7381F8FD21DDE7012037
:1010B00038BD022038BD38B5436801F00F029A42AE
:1010C000044626D81C2311F0800F03FB020119BF30
:1010D0003C3103FB020301F5FE7103FB024314BF25
:1010E000012000204FF0000514BF83F83D0083F875
:1010F000FD018D700A7094F8BC33012B0BD00123D5
:1011000084F8BC33206801F00CF884F8BC532846FE
:1011100038BD012038BD022038BD70B50468636A4F
:1011200021B943EA0243A362002070BDA06A4D1EAC
:1011300003EB10430020461CC0B2854206D83F3165
:1011400004EB810443EA02436360EDE7403004EBC3
:101150008000406803EB10433046ECE70368002052
:1011600059627047704700002DE9F341044618B9F1
:10117000012002B0BDE8F0810368DD0710D42368C8
:10118000980758D423681A0700F19A8023685B07F0
:1011900000F1B880A269002A40F019810020E8E738
:1011A000A64B9A6802F00C02042A07D09A6802F053
:1011B0000C02082A0AD15B68590207D59F4B1B68AD
:1011C0009A03DCD56368002BD9D1D1E763689B4DC6
:1011D000B3F5803F11D12B6843F480332B60FFF7C8
:1011E000A5F9964D06462B689B03C8D4FFF79EF9D8
:1011F000801B6428F7D90320BBE7B3F5A02F04D1E7
:101200002B6843F480232B60E5E72A6822F48032C0
:101210002A602A6822F480222A60002BDFD1FFF79F
:1012200085F906462B689F03A9D5FFF77FF9801B38
:101230006428F7D9DFE7814B9A6812F00C0F07D0CA
:101240009A6802F00C02082A11D15B685E020ED483
:101250007A4B1A68950702D5E268012A88D11A6884
:10126000216922F0F80242EAC1021A608AE7E268C4
:10127000734BB2B101221A60FFF758F96F4D064661
:101280002B68980707D52B68226923F0F80343EAF7
:10129000C2032B6076E7FFF749F9801B0228EFD9DC
:1012A000A9E71A60FFF742F9644D06462B689907D3
:1012B0007FF568AFFFF73AF9801B0228F6D99AE765
:1012C0006269604B7AB101221A60FFF72FF95B4D1A
:1012D00006466B6F9F073FF559AFFFF727F9801B55
:1012E0000228F6D987E71A60FFF720F9534D064622
:1012F0006B6F98077FF54AAFFFF718F9801B02283C
:10130000F6D978E74D4B1A6C12F0805228D1019231
:101310001A6C42F080521A641B6C03F080530193E4
:10132000019B0126484D2B68D9051BD5A368434D69
:10133000012B27D12B6F43F001032B67FFF7F6F842
:101340003E4D074641F288382B6F9B0739D5002E5A
:101350003FF420AF394A136C23F08053136419E72C
:101360000026DFE72B6843F480732B60FFF7DEF87D
:1013700007462B68DA05D9D4FFF7D8F8C01B022836
:10138000F7D938E7052B04D12B6F43F004032B6703
:10139000D0E72A6F22F001022A672A6F22F00402A6
:1013A0002A67002BCAD1FFF7C1F841F288380746F7
:1013B0002B6F9807CBD5FFF7B9F8C01B4045F7D97D
:1013C00019E7FFF7B3F8C01B4045BDD913E71B4D24
:1013D000AB6803F00C03082B3FF4CAAE1B4E00238E
:1013E000022A336034D1FFF7A1F807462B68990130
:1013F0001ED4226AE3691343626A43EA8213E26AF3
:1014000043EA0263A26A0D4C5208013A43EA0243DE
:101410006B6001233360FFF789F8054623689A0162
:101420003FF5BCAEFFF782F8401B0228F6D9E2E692
:10143000FFF77CF8C01B0228D8D9DCE60038024050
:1014400000004742800E4742007000406000474263
:10145000FFF76CF804462B689B017FF59FAEFFF702
:1014600065F8001B0228F6D9C5E600BF134908B588
:101470008B6803F00C03042B03D0082B03D0104817
:1014800008BD104808BD4A684B68496813F48003DA
:1014900014BF0C480A48C1F3881118BF002302F09A
:1014A0003F02A1FB0001FEF793FE044B5B68C3F310
:1014B000014301335B00B0FBF3F008BD003802408C
:1014C0000024F40000127A002DE9F0410D46044694
:1014D00010B90120BDE8F081444B1A6802F00F02F8
:1014E0008A4228D321688F072DD4C80740D43F4BA8
:1014F0001A6802F00F02954266D3226851076CD435
:10150000130707D53A4A2169936823F4604343EAF5
:10151000C1039360FFF7AAFF354B364A9B68C3F3BC
:101520000313D35CD840344B1860002002F0A2FEB5
:101530000020BDE8F081CAB21A701B6803F00F03E7
:101540009942C6D1CEE72A4B11F0040F1EBF9A680C
:1015500042F4E0529A600E0742BF9A6842F4604239
:101560009A609A68A06822F0F00202439A60BCE791
:1015700062681F4B012A1DD11B6813F4003FA8D0DD
:101580001B4EB36823F003031343B360FEF7CEFF93
:1015900041F288380746B368626803F00C03B3EB86
:1015A000820FA4D0FEF7C2FFC01B4045F3D9032031
:1015B000BDE8F081911E01291B6802D813F0007F5D
:1015C000DDE713F0020FDAE7EAB21A701B6803F0E6
:1015D0000F039D427FF47DAF8FE70549E0688B687C
:1015E00023F4E05303438B608AE700BF003C0240D2
:1015F00000380240F24A000818010020014B186828
:10160000704700BF18010020044B054A9B68C3F3D4
:101610008223D35C034A1068D840704700380240E8
:10162000024B0008180100200F2303600B4B9A683F
:1016300002F0030242609A6802F0F00282609A6847
:1016400002F4E052C2609B68DB0803F4E0530361DC
:10165000034B1B6803F00F030B6070470038024018
:10166000003C024070470368DA6842F00102DA6029
:101670009A6802F00702062A1EBF1A6842F00102A9
:101680001A600020704770477047704770470368C2
:101690001A69910710B504460ED5DA6892070BD582
:1016A0006FF002021A619B6901229B07027777D0D3
:1016B000FFF7EAFF0023237723681A69500710D544
:1016C000DA6851070DD56FF004021A619B69022296
:1016D00013F4407F2277204668D0FFF7D5FF002320
:1016E000237723681A6912070FD5DA6810070CD51B
:1016F0006FF008021A61DB690422990722772046FD
:101700005AD0FFF7C1FF0023237723681A69D20656
:1017100010D5DA68D0060DD56FF010021A61DB69BA
:10172000082213F4407F227720464BD0FFF7ACFF0E
:101730000023237723681A69D10708D5DA68D2070E
:1017400005D56FF001021A61204602F065FD23689D
:101750001A69100608D5DA68110605D56FF08002FF
:101760001A61204600F0B7F823681A69520608D5B6
:10177000DA68500605D56FF040021A612046FFF77F
:1017800085FF23681A69910622D5DA6892061FD56B
:101790006FF0200220461A61BDE8104000F09AB8B0
:1017A000FFF771FF2046FFF770FF83E7FFF76BFF3E
:1017B0002046FFF76AFF92E7FFF765FF2046FFF735
:1017C00064FFA0E7FFF75FFF2046FFF75EFFAFE78C
:1017D00010BD0000304A0368904212D0B0F1804F33
:1017E0000FD0A2F57C4290420BD002F5806290426D
:1017F00007D002F58062904203D002F57842904211
:1018000019D14A6823F070031343234A904229D028
:10181000B0F1804F26D0A2F57C42904222D002F552
:10182000806290421ED002F5806290421AD002F58A
:101830007842904216D0194A904213D002F5806245
:1018400090420FD002F5806290420BD0A2F5983200
:10185000904207D002F58062904203D002F5806288
:10186000904203D1CA6823F4407313434A6923F0BA
:101870008003134303608B68C3620B688362064B6B
:10188000984203D003F58063984201D10B6903634A
:1018900001234361704700BF000001400040014048
:1018A00010B50446A0B190F83D3003F0FF021BB91B
:1018B00080F83C20FFF7D6FE022384F83D302068F4
:1018C000211DFFF787FF012384F83D30002010BD64
:1018D000012010BD704770470A4B013B01D1032026
:1018E00070470269002AF8DA0369064A43F00103E7
:1018F0000361013AF3D0036913F00103F9D11846EB
:10190000704700BF410D030084B038B505AD85E8D0
:101910000E000A9B012B044625D1836B23F48033F0
:101920008363C36823F4840323F04003C360C36864
:1019300023F44013C360119B012B02BFC36843F41F
:101940008013C360FFF7C8FF089B012B07D1A36872
:1019500043F00603A360A36843F02003A360BDE83F
:10196000384004B07047C36843F04003C360FFF7DA
:10197000B3FF0E9B23B9A36B43F48033A363E3E768
:10198000A36B23F48033F9E7022A58D12E4B2F4A58
:101990000B44934247D92E4B2E4A0B44934244D9D1
:1019A000A1F574032C4AA3F5105393423FD9A1F13A
:1019B000837302F5C332A3F5E743A032934238D9CB
:1019C000264B274A0B44934235D9264B02F59222E7
:1019D0000B4402F5787293422FD9234B02F5C322B0
:1019E0000B4402F52072934229D9A1F1B77302F595
:1019F000B712A3F5585302F55872934221D91B4BE5
:101A000002F512220B4402F5F862934294BF0723B9
:101A10000623C26822F47052C260C26842EA83237D
:101A2000C360002070470F23F3E70E23F1E70D2377
:101A3000EFE70C23EDE70B23EBE70A23E9E70923A4
:101A4000E7E70823E5E700BF405327FFFF340C001A
:101A5000401E1BFF3F420F007F4F120060B6E5FEA5
:101A60005FE3160000D3CEFEC05BB3FEE05459FE28
:101A7000836843F00103836000207047836823F08C
:101A8000010383600020704708B5C368012923F073
:101A9000C043C36008D1C36843F00053C360322021
:101AA000FEF74AFD002008BD19B9C36843F0804322
:101AB000F4E7012008BD0000890141F02001064A39
:101AC0000161013A05D0036913F02003F9D11846EA
:101AD00070470320704700BF410D03001023064AE2
:101AE0000361013A05D0036913F01003F9D11846D8
:101AF00070470320704700BF410D0300D0F8003845
:101B00001943C0F8001800207047000084B02DE988
:101B1000F047044609A880E80E0000230C9F139E9E
:101B20008846194603F1400204EB820201330F2B71
:101B30005160F7D1002E73D1A36B43F40013A3635C
:101B4000A36B23F40023A363A36B23F48023A36379
:101B50000023C4F8003ED4F80038C4F800380E9BC7
:101B6000012B04F5006565D10B99002960D1204651
:101B7000FFF7C4FF10212046FFF79EFF01462046D5
:101B8000FFF7ACFF002857D1081C18BF0120002325
:101B90002B6104F510626B611946EB614FF0904EBA
:101BA0004FF0006C4FF67F39434547D1002104F5D3
:101BB00030628E464FF0904C4FF000684FF67F3900
:101BC0008B424ED12B69012F23F480732B6107D1F7
:101BD0002E4B2B632B6B43F4803343F003032B63B7
:101BE0000023A3616FF0804363611FB9A36943F0D1
:101BF0001003A361A269264B1343A3610F9B1BB182
:101C0000A36943F00803A361012E01BFA36943F058
:101C1000804343F00403A361BDE8F04704B070477C
:101C2000236823F400132360A36B43F400238EE79F
:101C300019469CE703219AE70120A8E7D2F800A003
:101C4000BAF1000F0BDA3BB9C2F800C011610133E1
:101C5000C2F808902032A7E7C2F800E0F6E711606A
:101C6000F4E7D2F800A0BAF1000F0CDA41B9C2F8DB
:101C70000080C2F810E00131C2F8089020329FE7DE
:101C8000C2F800C0F5E7C2F800E0F2E7000180000A
:101C900000383C80D0F8083813F0060004D013F068
:101CA000020F14BF02200F20704770B54A780C78DD
:101CB000D0F81C6800F50063012A04F00F051BD161
:101CC000AA40324300EB4410DA61D0F800391A041C
:101CD00010D48B68C978D0F80029C3F30A0343F005
:101CE000805343F4004343EA814343EA845313435C
:101CF000C0F80039002070BD4FF48032AA40324352
:101D000000EB4410DA61D0F8003B1B04F2D48B687E
:101D1000C978D0F8002BC3F30A0343F0805343F48F
:101D2000004343EA81431343C0F8003BE2E700006D
:101D300030B54B780C78D0F83C1800F50062012BD8
:101D400004F00F0510D1AB40DB431940D163D169DA
:101D500000EB44100B40D361D0F800290B4B13402B
:101D6000C0F80039002030BD4FF48033AB40DB4376
:101D70001940D163D16900EB44100B40D361D0F816
:101D8000002B034B1340C0F8003BEBE7007833EC2B
:101D90000078F3EFF0B54B780C784E69414F012B8A
:101DA0004FF0200359D113FB040336BBD3F810596D
:101DB00025F0FF5525F4C015C3F81059D3F8105974
:101DC00045F40025C3F81059D3F810592F40C3F833
:101DD0001079012A4FF0200329D10A691AB113FBA7
:101DE0000403C3F8142900EB4410D0F8002942F092
:101DF0000442C0F800290020F0BD03F510631D69FE
:101E00002F401F611D6925F0FF5525F4C0151D6188
:101E10008D68AE4288BF4D611D6945F400251D6186
:101E20004D691E69C5F3120535431D61D1E713FBEA
:101E30000404D4F8003943F00443C4F800394B6972
:101E4000002BD8D00A78D0F8343802F00F010122E4
:101E50008A401A43C0F83428CDE713FB040000F58C
:101E600030631C6927401F611C6924F0FF5424F46F
:101E7000C0141C618C6806B14C611D6945F40025D5
:101E80001D611D69C4F312042C43012A1C6102D197
:101E9000CA6802B15A61D0F8003B43F00443C0F86D
:101EA000003BA8E70000F8FF10B59DF808404CB9CA
:101EB000033300EB023023F0030300F580500B44A2
:101EC000994201D1002010BD51F8042B0260F7E7C0
:101ED000F7B54B780E78734F012B4FF020044B6908
:101EE00014FB060440F09880002B38D104F51065EF
:101EF000D4F8104924F0FF5424F4C0142C612C6948
:101F000044F400242C612C6927402F61012A4FF0F2
:101F1000200454D10B691BB114FB0604C4F8143916
:101F2000CB78012B10D1D0F8083813F4807F4FF014
:101F3000200313FB0603D3F800290CBF42F0005224
:101F400042F08052C3F8002900EB4610D0F8003967
:101F500043F00443C0F80039002003B0F0BDD4F8CA
:101F600010592F40C4F81079D4F810598F6825F013
:101F7000FF5525F4C015C4F81059DD19013DB5FB16
:101F8000F7F7494DD4F810E905EAC74545EA0E05CB
:101F9000C4F81059D4F81079C3F312053D43C4F8BE
:101FA0001059CD78012D04F51064AFD1256925F0C5
:101FB000C0452561256945F000552561A6E714FB5C
:101FC0000604D4F8005945F00445C4F80059CD780A
:101FD000012D0CD0002BBFD00B78D0F8344803F083
:101FE0000F02012393402343C0F83438B4E7D0F8FC
:101FF000085815F4807FD4F800590CBF45F00055FF
:1020000045F08055C4F800590C7800929BB22246E6
:10201000C968FFF749FF9FE704F5306635692F402F
:102020003761356925F0FF5525F4C01535618D6898
:1020300023BB3369C5F312051D433561336943F48E
:102040000023012A336102D1CB6803B17361CB78DD
:10205000012B0CD1D0F8083813F4807FD4F8003B62
:102060000CBF43F0005343F08053C4F8003BD4F856
:10207000003B43F00443C4F8003B6DE70A4FD6F839
:1020800010E02B44013BB3FBF5F307EAC34747EAF3
:102090000E0737619BB237696B43C3F312033B43AF
:1020A000CFE700BF0000F8FF0000F81F033222F066
:1020B00003020A4400F58050914201D1084670475E
:1020C000036841F8043BF7E74B780A78012B4FF09F
:1020D000200313FB020012D1D0F80039002B06DBDD
:1020E0002AB1D0F8003923F08043C0F80039D0F885
:1020F000003943F40013C0F8003900207047D0F8CD
:10210000003B002B06DB2AB1D0F8003B23F08043D4
:10211000C0F8003BD0F8003B43F40013C0F8003B8C
:10212000EBE74B780A78012B4FF0200313FB0200FA
:1021300011D1D0F8003923F40013C0F80039CB785E
:10214000023B012B05D8D0F8003943F08053C0F88A
:10215000003900207047D0F8003B23F40013C0F88A
:10216000003BCB78023B012B9EBFD0F8003B43F0F5
:102170008053C0F8003BECE7D0F8003823F4FE634E
:10218000C0F80038D0F80038090101F4FE611943A5
:10219000C0F800180020704708B5D0F8043823F0C4
:1021A0000203C0F804380320FEF7C6F9002008BD7A
:1021B00008B5D0F8043843F00203C0F8043803200F
:1021C000FEF7BAF9002008BD4269806910407047E7
:1021D000D0F8183800F50060C0691840000C70474E
:1021E000D0F8183800F50060C069184080B2704718
:1021F00000EB411100F50060D1F8082B4069104058
:10220000704710B5D0F81048D0F8343800EB4110C2
:1022100001F00F01CB4000F51060DB018068DBB2FC
:102220002343184010BD406900F001007047D0F80A
:10223000003923F4FF6323F00703C0F8003900F5E9
:1022400000639A6802F00602042A02BFD0F800294F
:1022500042F00302C0F800295A6842F480725A60C2
:102260000020704710B5164B046C9C4203D9D0F87F
:10227000003B002B21DB0024C0F8104BD0F8104BA2
:1022800044F40024C0F8104BD0F8104B44F018046C
:10229000C0F8104BD0F8104B012944F0C044C0F8EE
:1022A000104B08BFC0F8142B00F5306302BFD0F804
:1022B000003B43F08023C0F8003B002010BD00BF6E
:1022C0000A30544FD0F8943210B5D0F890425BB138
:1022D00094F80002FF2807D09B6894F80122214659
:1022E0009847FF2384F80032002010BD4323038069
:1022F000004870473C00002043230380004870479B
:10230000800000204323038000487047D000002055
:102310000A23038000487047C400002038B50546F2
:10232000D0F8904202F0F6F9D5F89032C4F80C02D9
:102330004BB1D5F89432D4F80402DB6804F503718C
:102340009847002038BD022038BDF8B5D0F890621B
:10235000D6B1142303FB0103DD698DB1D0F8984297
:102360001C2707FB0142526CB5FBF2F402FB14542C
:1023700034B9DC612246234602F0B0F92046F8BDAC
:102380000020C6F81402F8BD0220F8BD2DE9F7437D
:102390000A78D0F890724FF0000812F060040546F9
:1023A0000E468DF80580ADF8068028D0202C47D148
:1023B000CC884B78E4B1120611D5D0F89422394676
:1023C000D2F8089018462246C847F288394628466F
:1023D00000F04AFC4446204603B0BDE8F08387F88D
:1023E000003287F801422246394600F052FCF1E7FC
:1023F000D0F89422184695682246A847EBE74F7814
:102400000A2F0DD00B2F15D0D7B990F87432032BAB
:1024100014D102220DF1060100F026FC3C46DAE759
:1024200090F87432032B09D101220DF1050100F05F
:102430001BFCD0E790F87432032BCCD031462846F1
:1024400000F0EBFB0224C6E738B5044600258121E5
:1024500002F0F8F80121E562204602F0F3F8C4F832
:1024600058518221204602F0EDF8D4F890322564CC
:102470004BB1D4F894325B689847D4F8900202F0DC
:1024800029FAC4F89052002038BD037C2DE9F041B0
:102490000446CBBB4FF4007302228121012502F0D8
:1024A000C1F8E5624FF4007329460222204602F08B
:1024B000B9F8C4F858510823032282212046012587
:1024C00002F0B0F825644FF4077002F0FBF90646FD
:1024D000C4F8900258B3D4F894321B68984794F823
:1024E00010800027C6F81472C6F81872B8F1000FF1
:1024F00013D14FF40073D6F804222946204602F087
:10250000FBF84046BDE8F0814023022281210125ED
:1025100002F088F8E5624023C6E74023D6F804229B
:102520002946204602F0E8F83846BDE8F081284602
:10253000BDE8F08119B1C0F8941200207047022064
:102540007047D0F890320020C3F80812C3F8102268
:102550007047D0F890320020C3F804127047D0F8CA
:10256000902210B582B1D2F81442012374B9C2F896
:102570001432D2F810320363D2F808229BB28121C0
:1025800002F0ACF8204610BD022010BD184610BD68
:10259000D0F8902210B562B1047C44B94FF40073B6
:1025A000D2F80422012102F0A7F8002010BD402338
:1025B000F6E7022010BD08B580B1D0F88C3213B117
:1025C0000023C0F88C3209B1C0F88812012380F8CA
:1025D0007432027001F0EAFF002008BD022008BD3D
:1025E00019B1C0F88C12002070470220704708B55E
:1025F00002F00AF8002008BD08B5D0F88C320BB9FB
:10260000022008BD1B6898470028F9D108BD08B50D
:10261000D0F88C325B689847002008BD38B5044676
:1026200000F52075284600F0E4FA012394F88012A2
:10263000C4F86C32B4F88632C4F8703201F01F036B
:10264000012B0ED007D3022B10D001F080012046C1
:1026500002F006F803E02946204600F003F90020C6
:1026600038BD2946204600F017FAF8E729462046EB
:1026700000F037FAF3E770B50546164649BBD0F8C7
:102680006C32032B1ED1D0F84C31D0F8502193423C
:102690000BD99B1A9A42C0F84C318CBF9AB292B2B5
:1026A000314600F005FB002070BDD0F88C321B696C
:1026B00023B190F87422032A00D19847284600F0ED
:1026C000FFFAF0E7052BEED1C5F86C1201F0C8FF58
:1026D000E9E7D0F88C329B692BB190F87422032A79
:1026E00001D19847DFE7022070BD70B5134604465C
:1026F0000E46002948D1D0F86C22022A3DD1056A45
:10270000426A954214D9AA1A0262194692B200F09E
:10271000B8FA33461A461946204601F0EDFF94F800
:102720007832012B4FF000003AD184F8780270BD66
:10273000C369B3FBF2F502FB153565B99A420AD8B5
:10274000D0F87022934206D22A4600F09AFAC4F8D2
:1027500070522B46DEE7D4F88C32DB682BB194F84C
:102760007422032A01D1204698478021204601F097
:1027700077FF204600F0AFFAD1E732F00403CED164
:10278000802101F06DFFCAE7D0F88C325B6933B16C
:1027900090F87422032A02D19847002070BD0220CD
:1027A00070BD70B500220446114601254026402325
:1027B00001F038FF33468021C4F84451C4F8506119
:1027C0000022204601F02EFFD4F89032A5610021AE
:1027D000666284F87452C4F86C126160C4F87C12AA
:1027E00023B1D4F88C3220465B689847002070BD36
:1027F00001740020704790F8743280F87532042319
:1028000080F874320020704790F8753280F8743286
:102810000020704708B590F87422032A04D1D0F83C
:102820008C32DB6903B19847002008BD0020704757
:10283000002070470020704708B5012280F87422FC
:10284000D0F88C22017952689047002008BD10B55D
:102850008021044601F004FF20460021BDE810401D
:1028600001F0FEBE37B50B7803F06003202B044661
:102870000D4614D0402B12D0002B40F08D804B78A9
:10288000092B00F28880DFE813F0DF00F9008600F2
:10289000F20086007A0013008600CA009800D4F87F
:1028A0008C3229469B6820469847002003B030BDF3
:1028B0004B881A0A013A062A6DD8DFE802F0042094
:1028C0002D6C6C4D5600D0F888321B68207C0DF1C1
:1028D00006019847BDF8062052B1EB8843B19A42F1
:1028E00028BF1A4601462046ADF8062000F0BCF984
:1028F000EB88002BD9D1204600F0E2F9D5E7027C25
:10290000D0F88C3232B99B6A0DF106009847022349
:102910004370DFE7DB6AF7E7DBB2052B3BD8DFE884
:1029200003F003070B0F1317D0F888325B68CDE76D
:10293000D0F888329B68C9E7D0F88832DB68C5E7F1
:10294000D0F888321B69C1E7D0F888325B69BDE7EF
:10295000D0F888329B69B9E7037CE3B9D0F88C32B0
:102960000DF106005B6B9847B4E7037C9BB9D0F888
:102970008C320DF106001B6B98470723C8E78B8844
:102980004BB9CB883BB94D887F2D04D890F8743271
:10299000032BE9B203D12046FFF759FF85E780F802
:1029A000761201F08DFE204600F08AF91DB1022357
:1029B00084F8743279E70123FAE78978354D0129E3
:1029C0002970E8D890F87432022B08D0032B14D069
:1029D000FFF73DFF29782046FFF719FE65E700293C
:1029E00089D001210323416080F874322046FFF72B
:1029F00003FE02287FF47FAFCDE731B9022380F8D0
:102A000074324160FFF703FE75E7416801293FF426
:102A100072AFC9B2FFF7FBFD29786160E6E7CA88AB
:102A2000012AB8D190F87432002BB4D0022B03D90C
:102A3000032BB0D1011D03E00146002341F8083FFC
:102A4000204600F011F930E790F87432013B022B78
:102A5000A1D8CB88022B9ED10123C360D0F87C3251
:102A60000BB10323C360022204F10C01E8E74B8899
:102A7000012B7FF41AAFC4F87C323CE790F8743233
:102A8000013B022B87D84B88012B7FF40EAF00232C
:102A9000F1E700BFFC01002038B50B7803F06003BC
:102AA000202B04460D4602D0402B00D0B3B994F839
:102AB0007432013B022B10D82B79012B0DD8D4F89E
:102AC0008C3229469B6820469847EB881BB910B981
:102AD000204600F0F5F8002038BD2046FFF7B7FE8D
:102AE000F9E738B50A7802F06002202A04460B465E
:102AF00013D0402A11D06AB95D788A88012DD1B2ED
:102B00001FD035D3032D05D190F87422022A26D088
:102B1000032A0AD0FFF79BFE05E0D4F88C22194661
:102B2000926820469047002038BD5A882AB94A0644
:102B300003D0DB880BB901F093FD204600F0C0F80C
:102B4000F1E790F87422022A09D0032AE2D15B88C7
:102B5000002BE8D14D06F0D001F090FDEDE74B06DB
:102B600017D001F07DFD8021204601F079FDDAE7E4
:102B700090F87432022B0ED0032BCBD112F0800FC1
:102B80004FF0140301F00F0203FB020212D092690E
:102B9000DAB92046BEE74906FBD113064CBF00F167
:102BA000140100F5A07100230B600222204600F002
:102BB0005BF8B8E7D2F84421002AEAD001F07F059B
:102BC00003FB050505F5A07504E001F07F0505FB95
:102BD0000335054411F07F0303D12B6002222946FF
:102BE000E4E7204601F058FD08B10123F5E728602D
:102BF000F4E70B7803704B784370CA788B7803EB5B
:102C0000022343804A790B7903EB02238380CA793C
:102C10008B7903EB0223C380704710B580210446F3
:102C200001F01EFD20460021BDE8104001F018BD56
:102C300030B588B105462B1A15F8014BDBB2002CD4
:102C4000F9D101335B0013800B7003234B70013803
:102C5000022310F8015F05B930BD5A1CD2B2CD5421
:102C60000233DBB28C54F4E710B513460222C0F8ED
:102C70006C22C3610A460362002101F02FFD00208F
:102C800010BD08B513460A46002101F027FD0020BB
:102C900008BD10B513460322C0F86C22C0F84831B5
:102CA0000A46C0F84C31002101F026FD002010BD7D
:102CB00008B513460A46002101F01EFD002008BD9C
:102CC00008B50423C0F86C3200231A46194601F0F7
:102CD00005FD002008BD08B50523C0F86C320023AF
:102CE0001A46194601F008FD002008BD08B500F09D
:102CF0003BFE002008BD70B5054646692A6940685C
:102D0000B5F908400B4686B0296876B1AD6965B162
:102D1000842C14BF0334002402958DE8500000F089
:102D2000BFFD0590059806B070BD842C14BF033418
:102D3000002405AD92B28DE8300000F0E8FD0128D6
:102D4000F0D00020EFE708B5002808BF012000F010
:102D500053FF002008BD00F1080343604FF0FF322D
:102D6000C360036100238260036070470023036136
:102D7000704743684B609A688A609A6851609960AE
:102D8000036808610133036070470A68531C30B55B
:102D90000AD103695A684A6091608B605960036880
:102DA00008610133036030BD00F108035C682568E9
:102DB000AA42EFD32346F9E74168826803698A6033
:102DC000826851605968884208BF5A6000220261D7
:102DD0001A68013A1A6018687047000082B0002330
:102DE00001930D4B1B68013308D04FF0500383F360
:102DF0001188BFF36F8FBFF34F8FFEE74FF0500383
:102E000083F31188BFF36F8FBFF34F8F019B002BAC
:102E1000FCD002B0704700BF1401002008480068D1
:102E2000006880F308884FF0000080F3148862B6D1
:102E300061B6BFF34F8FBFF36F8F00DF00BF00009D
:102E400008ED00E0DFF80C00016841F4700101605A
:102E50007047000088ED00E04FF0807340F8043CBC
:102E6000074B40F80C3C21F001016FF0020340F8E1
:102E7000081C40F8202C40F8243C4438704700BF20
:102E8000DD2D000800000000000000000000000030
:102E9000074B19680868B0E8F04F80F30988BFF362
:102EA0006F8F4FF0000080F311887047AFF3008000
:102EB0001C3E00204FF0500383F31188BFF36F8F47
:102EC000BFF34F8F0A4A13680133012B13600DD1F2
:102ED000084B1B6813F0FF0F08D04FF0500383F32B
:102EE0001188BFF36F8FBFF34F8FFEE7704700BFAE
:102EF0001401002004ED00E0084A136843B94FF0C4
:102F0000500383F31188BFF36F8FBFF34F8FFEE73A
:102F1000013B13600BB983F3118870471401002043
:102F2000EFF30980BFF36F8F154B1A681EF0100F77
:102F300008BF20ED108A20E9F04F10602DE909004C
:102F40004FF0500080F31188BFF34F8FBFF36F8FA6
:102F500000F076FE4FF0000080F3118809BC19687C
:102F60000868B0E8F04F1EF0100F08BFB0EC108AF0
:102F700080F30988BFF36F8F704700BFAFF3008005
:102F80001C3E002008B54FF0500383F31188BFF3B7
:102F90006F8FBFF34F8F00F025FD18B1034B4FF03B
:102FA00080521A60002383F3118808BD04ED00E00D
:102FB000084A0949002313600B60084B4FF47A71EB
:102FC0001B68B3FBF1F30649013B0B600723136059
:102FD000704700BF10E000E018E000E0180100209A
:102FE00014E000E0394B3A4A13B51968914208D110
:102FF0004FF0500383F31188BFF36F8FBFF34F8FF0
:10300000FEE71A68334B9A4208D14FF0500383F31E
:103010001188BFF36F8FBFF34F8FFEE72E4B1A78E7
:10302000D2B20192FF221A701B782C4ADBB28DF8C3
:1030300003309DF8033003F050031370284B072230
:103040001A6000219DF80300000602F1FF340DD440
:1030500001B11A601A68032A11D04FF0500383F3AC
:103060001188BFF36F8FBFF34F8FFEE79DF80320EA
:103070005200D2B28DF8032001212246E2E712026B
:1030800002F4E0621A60019B134ADBB21370154B25
:103090001A6842F470021A601A6842F070421A60AC
:1030A000FFF786FF104B00241C60FFF7CBFE0F4A92
:1030B000136843F040431360FFF7B0FE00F0C0FD1B
:1030C000FFF78CFE204602B010BD00BF00ED00E00F
:1030D00071C20F4170C20F4100E400E0FD01002009
:1030E0000002002020ED00E01401002034EF00E099
:1030F000EFF305830F2B0ED9104A9B5C104A127810
:103100009A4208D94FF0500383F31188BFF36F8FB1
:10311000BFF34F8FFEE70B4B0B4A1B68126803F49B
:10312000E063934208D94FF0500383F31188BFF353
:103130006F8FBFF34F8FFEE7704700BFF0E300E0F3
:10314000FD0100200CED00E00002002010B50F4B47
:103150001A68824218D35C681919884201BF416815
:10316000184609195960446801198A4207D108496B
:1031700009688A421FBF5168126809194160984264
:10318000026018BF186010BD1346E1E7143E00202E
:10319000040200202DE9F041044600F01BFC3E49EA
:1031A0003E4D0B680BBB3E4A56071FBFD01D20F09B
:1031B000070002F570531B1A14BF02464FF47053F8
:1031C0001344083B23F00703364E0B600020706069
:1031D000326058601860981A1360334B5060186062
:1031E000324B18604FF000432B602F68274216D1F6
:1031F000002C41D004F1080358071CBF23F007033B
:10320000083363B1294A1668B342904607D8254A65
:1032100015686868834204D809688D4207D1002484
:103220002AE02C68002CF7D02A462546F1E72968C9
:1032300014681160C21A102A0FD9E818410708D083
:103240004FF0500383F31188BFF36F8FBFF34F8F9D
:10325000FEE742606B60FFF779FF13496B6808680F
:10326000F61A1F4386424FF00003C8F8006038BFCB
:103270000E6008346F602B6000F046FC630708D0D6
:103280004FF0500383F31188BFF36F8FBFF34F8F5D
:10329000FEE72046BDE8F08104020020083E002041
:1032A00008020020143E0020103E00200C3E0020AA
:1032B00010B5044670B3184A50F8043C1268134223
:1032C00008D14FF0500383F31188BFF36F8FBFF322
:1032D0004F8FFEE750F8081C41B14FF0500383F3C5
:1032E0001188BFF36F8FBFF34F8FFEE723EA02030E
:1032F00040F8043C00F06EFB084A54F8043C1168A6
:10330000A4F108000B441360FFF720FFBDE8104054
:1033100000F0FABB10BD00BF083E00200C3E0020AC
:1033200070B51546026C866B044642B905689DB9B6
:10333000406800F001FD65600136A66370BD6DB99F
:10334000806801F0CFFAA368226C13446268A3601E
:10335000934201D32368A3600020EDE7C06801F029
:10336000C1FA236CE26821685B421A448A42E26037
:103370003EBF62689B18E360022DEDD10EB1013EA5
:10338000EAE73046D8E7034610B41A6C084662B143
:10339000D9685C681144A142D96024BF1968D9601A
:1033A000D9685DF8044B01F09DBA5DF8044B704795
:1033B00038B50D46044640B94FF0500383F31188E9
:1033C000BFF36F8FBFF34F8FFEE7FFF773FD206CE6
:1033D000E36B2268A2604343D1181B1A1344616057
:1033E000E3600021FF23A16384F8443084F8453072
:1033F00095B9236963B104F1100000F05BFC38B1AA
:103400000A4B4FF080521A60BFF34F8FBFF36F8F9C
:10341000FFF772FD012038BD04F11000FFF79BFC9F
:1034200004F12400FFF797FCF2E700BF04ED00E091
:1034300070B50D46064640B94FF0500383F311882E
:10344000BFF36F8FBFF34F8FFEE748434830FFF75E
:10345000A1FE044650B1002380F8463045B92060F3
:10346000E663256401212046FFF7A2FF204670BDD8
:1034700000F148030360F3E72DE9F84388469146DD
:103480001F46044640B94FF0500383F31188BFF341
:103490006F8FBFF34F8FFEE709BB036CFBB14FF09B
:1034A000500383F31188BFF36F8FBFF34F8FFEE795
:1034B00004F1240000F0FEFB002834D0B9F1000F25
:1034C00031D00120C9F8000086F31188BDE8F883E7
:1034D00001356DB284F8455025E00020F4E7022F55
:1034E00002D1E36B012B20D1FFF702FEEFF311862F
:1034F0004FF0500383F31188BFF36F8FBFF34F8FEB
:10350000A26BE36B9A4201D3022FE6D194F84550A7
:103510003A466DB241462046FFF702FF6B1CD7D1F9
:10352000636A002BC4D10120CEE74FF0500383F330
:103530001188BFF36F8FBFF34F8FFEE72DE9F8437C
:1035400089469046054640B94FF0500383F31188F1
:10355000BFF36F8FBFF34F8FFEE771BB036C63B395
:103560004FF0500383F31188BFF36F8FBFF34F8F7A
:10357000FEE795F84460494676B22846FFF703FF18
:10358000013C731CAC6313D12B690BB901200BE018
:1035900005F1100000F08EFB0028F7D0B8F1000F05
:1035A000F4D00120C8F8000087F31188BDE8F88343
:1035B000013676B285F84460E8E7FFF799FDEFF34E
:1035C00011874FF0500383F31188BFF36F8FBFF360
:1035D0004F8FAC6B002CCCD12046E5E72DE9F041B4
:1035E0000646FFF767FC2D4B2D4C1A682D4F013214
:1035F0001A602568002D45D126601B68012B1CD15F
:1036000078191435FFF7A7FB8C2DF9D1DFF8C080AE
:10361000254D4046FFF79FFB2846FFF79CFB2348BC
:10362000FFF799FB2248FFF796FB2248FFF793FB31
:10363000214BC3F80080214B1D60214A21491368AA
:10364000086801331360F26A012393400343142096
:103650000B6000FB0270311DFFF78BFBFFF74CFC8A
:10366000194B1B6863B12368DA6AF36A9A4207D27E
:10367000164B4FF080521A60BFF34F8FBFF36F8F1E
:10368000BDE8F081104B1B68002BD6D12368DA6AA5
:10369000F36A9A4298BF2660CFE700BFB43E00208D
:1036A0001C3E0020283E0020E03E0020FC3E002082
:1036B000283F0020143F0020203E0020243E002010
:1036C000C43E0020C83E0020103F002004ED00E072
:1036D000CC3E0020064A13681968064B19B94FF012
:1036E000FF321A6070471268D268D2685268F8E7F1
:1036F000203E0020F43E00202DE9F0470A9CDDF832
:103700002480266B02F18042013A06EB82069A463B
:1037100081464B1E26F0070604F134020F3158781B
:1037200002F8010B13F8010F08B18B42F7D1089D85
:10373000062D28BF06250027E5626564201D84F854
:103740004370A764FFF712FBC5F1070504F11800E9
:10375000FFF70CFBE7642461A561646284F8507094
:10376000524649463046FFF777FB2060B8F1000F1C
:1037700001D0C8F80040BDE8F08710B590F851308E
:1037800004463BB9006BFFF793FD2046BDE81040AF
:10379000FFF78EBD012BF9D0022B08D04FF050035C
:1037A00083F31188BFF36F8FBFF34F8FFEE710BD18
:1037B00080B5DFF85C80124F124C134D236863B95B
:1037C000124B1B68012BF8D94FF08053C8F800301A
:1037D000BFF34F8FBFF36F8FEEE7FFF76BFBFB6815
:1037E000DE68301DFFF7E8FA2B68013B2B60236889
:1037F000013B2360FFF780FB3046FFF7BEFFDDE7AC
:10380000283F0020B83E0020B43E0020283E002083
:1038100004ED00E0F8B51B4B1B4E1D6804463068F4
:1038200004300F46FFF7C8FA334640B93168174EE7
:10383000C96A32680120884022EA00023260621CB4
:1038400007D137B1196812480431BDE8F840FFF7D5
:1038500090BA2C441A68A542546007D90D4A1068E2
:103860001968BDE8F8400431FFF78FBA0A4A1068BA
:1038700019680431FFF789FA084B1A68944238BF77
:103880001C60F8BD3C3F00201C3E0020C83E0020CC
:10389000143F0020243E0020203E0020F43E002063
:1038A00070B586B00B9D0C9C45B94FF0500383F367
:1038B0001188BFF36F8FBFF34F8FFEE744B94FF00E
:1038C000500383F31188BFF36F8FBFF34F8FFEE771
:1038D00054260496049E542E08D04FF0500383F3D0
:1038E0001188BFF36F8FBFF34F8FFEE7256302256B
:1038F00084F8515005AD01950A9D02940095FFF79B
:10390000FBFE2046FFF76AFE059806B070BD2DE964
:10391000F043074685B09000884616469946FFF763
:1039200039FC0546E8B15420FFF734FC0446A8B141
:10393000002380F851300D9B056301930C9B02908E
:10394000009332464B4641463846FFF7D5FE2046A7
:10395000FFF744FE012005B0BDE8F0832846FFF7DD
:10396000A7FC4FF0FF30F6E710B588B0002407AA97
:1039700006A905A80594069400F02EFA059B02936B
:10398000069B019300942346079A0D490D48FFF7C3
:1039900087FF90B14FF0500383F31188BFF36F8F0F
:1039A000BFF34F8F084B4FF0FF321A60074B0122D5
:1039B0001A60074B1C60FFF715FB08B010BD00BF75
:1039C000D84A0008B1370008F43E0020103F00201C
:1039D0003C3F0020024A136801331360704700BF68
:1039E000C03E00202DE9F84F3C4B1B68002B53D103
:1039F0003B4B1C6801341C60BCB93A4B1A68126816
:103A000042B14FF0500383F31188BFF36F8FBFF3C0
:103A10004F8FFEE7344A1968106818601160334A06
:103A2000136801331360FFF755FE314D314F2B689A
:103A30009C424FF0000B3ED3DFF8A880DFF8C49023
:103A4000D8F80020126872BB4FF0FF322A6032E0D3
:103A500006F1040A5046FFF7AFF9B16A19B106F151
:103A60001800FFF7A9F9F06AD9F80030012202FA2C
:103A700000F11943204BC9F800104FF0140E5146C5
:103A80000EFB0030FFF775F93868F16AC26A91429F
:103A900028BF4FF0010BD3E7184A136801331360B6
:103AA0004FF0000B11E0D8F80020D268D66871689A
:103AB0008C42CDD229603A680F4BD16A14224A4316
:103AC0009A58022A28BF4FF0010B0D4A1268002AAB
:103AD00018BF4FF0010B5846BDE8F88FC03E0020DC
:103AE0003C3F0020203E0020243E0020F83E0020E5
:103AF000F43E00201C3E0020283E0020BC3E00205A
:103B0000403F0020C83E00202DE9F843314C236897
:103B100043B94FF0500383F31188BFF36F8FBFF3A6
:103B20004F8FFEE7FFF7C6F92368013B2360246847
:103B30002CB10024FFF7E0F92046BDE8F883264BBE
:103B40001B68002BF5D0DFF8A890244FDFF8A48085
:103B5000D9F80030E3B90CB1FFF7BCFD204D2C685B
:103B600044B1204E0127FFF73DFF00B13760013C13
:103B7000F9D12C601B4B1B68002BDAD01A4B4FF08D
:103B800080521A60BFF34F8FBFF36F8F0124D1E7CC
:103B9000D9F80C30DC68261D04F11800FFF70CF989
:103BA0003046FFF709F9E26A3968012505FA02F3A0
:103BB00014200B4300FB028031463B60FFF7D9F82D
:103BC0000A4BE26A1B68DB6A9A4224BF054B1D6000
:103BD000BEE700BFC03E0020B43E0020C83E00202B
:103BE000BC3E0020403F002004ED00E01C3E0020D1
:103BF000FC3E0020283E002008B540B90E4B4FF097
:103C000080521A60BFF34F8FBFF36F8F08BD0B4B0D
:103C1000196841B14FF0500383F31188BFF36F8FE0
:103C2000BFF34F8FFEE7FFF7D5FEFFF7F3FDFFF77A
:103C30006BFF0028E2D008BD04ED00E0C03E00208C
:103C4000174B1A68174B10B512B101221A6010BD3C
:103C50001A60154B1B68B3FA83F3DBB2C3F11F0381
:103C6000142212495A4388188C5844B94FF0500313
:103C700083F31188BFF36F8FBFF34F8FFEE7446864
:103C80000832646844600A44944204BF6268426037
:103C9000142202FB03135B68DA68054BD6E700BF0A
:103CA000C03E0020403F0020C83E0020283E0020AB
:103CB0001C3E002038B5C368DC6844B94FF050039F
:103CC00083F31188BFF36F8FBFF34F8FFEE704F1CB
:103CD00018052846FFF770F8114B1B68E3B9251D3E
:103CE0002846FFF769F80F49E26A08680123934004
:103CF00003430B600C4B1420294600FB0230FFF7F6
:103D000038F80A4BE26A1B68DB6A9A4283BF084BA9
:103D100001201860002038BD29460648EFE700BFA3
:103D2000C03E0020C83E0020283E00201C3E00204F
:103D3000403F0020FC3E0020F8B5044608B90020B2
:103D4000F8BD224B1B68984208D04FF0500383F314
:103D50001188BFF36F8FBFF34F8FFEE7836C43B9BA
:103D60004FF0500383F31188BFF36F8FBFF34F8F72
:103D7000FEE7C16A426C013B91428364DFD0002BB5
:103D8000DDD1051D2846FFF717F8114E114A50B92D
:103D9000E76A1421794373582BB913680120B8409E
:103DA00023EA00031360636CE362C3F10701A161BE
:103DB0001168012404FA03F008431060142000FB8A
:103DC00003602946FEF7D5FF2046F8BD1C3E0020C3
:103DD000283E0020C83E0020034B0360034B0B60CD
:103DE00080231360704700BF44410020443F0020FF
:103DF000016182827047816082817047092909D8F8
:103E00003031B0F816325A1CA0F816221844C9B244
:103E100081757047A1F16103052B94BF373157318C
:103E2000EFE770B50D46818AA942044603D0838925
:103E3000AB4240F0A08094F81C328BB3032B00F20D
:103E40009A80A389AB4259D194F81D32072B42D9ED
:103E50002069FCF7B9FCB4F81E3200280CBF4FF4FF
:103E6000807500251D432DB2AEB2C6F30311204666
:103E7000A4F81E62FFF7C2FF05F00F012046FFF70E
:103E8000BDFF310B2046FFF7B9FFC6F303212046E3
:103E9000FFF7B4FF002384F81D32A4F81E3270BD72
:103EA000A94268D12069FCF78FFC0546002862D141
:103EB000A189A068FCF788FC01285CD15B2384F809
:103EC0001C0284F81D52A375A4F81E5284F8240223
:103ED000A4F8160270BDB4F81E522069FCF774FCF9
:103EE00094F81D326D00ADB20133012814BF28468D
:103EF000681C84F81D32A4F81E0270BDA94212D1BC
:103F00002069FCF761FC064668B9A189A068FCF746
:103F10005BFC012807D1032384F81C3284F81D625E
:103F2000A4F81E6270BDA38AAB4224D1A189A06807
:103F3000FCF74AFC01281ED1A18A2069FCF744FC49
:103F4000012818D1B4F816325A1C2344A4F81622BA
:103F50005D229A75D4F8203223B104F2162104F1BF
:103F600016009847002384F81D32A4F8163284F80E
:103F7000243284F81C3270BD0A4B03600A4B436044
:103F80000A4BC0F818320023C0F82012A0F81632ED
:103F900080F81C3280F81D32A0F81E3280F82432DE
:103FA000704700BFF13D0008F73D0008233E0008C0
:103FB0001FB5084C206801AA02A9FFF7BFFA012823
:103FC000F8D1BDF80810039800F03EFA039800F00D
:103FD00081FCEFE7D447002030B50C8885B005465A
:103FE0000021204600F03CFC2246294600F07AFCE5
:103FF00003900548ADF80840002301AA02A9006813
:10400000FFF73AFA05B030BDD447002008B500F0FC
:10401000CDF9054CC820FEF796FE4FF4004120462E
:10402000FCF7DDFBF6E700BF000C0240024B014647
:10403000D3F81822184610479841002030B595B0A3
:104040003022002108A800F058FC0021142203A807
:1040500000F053FC00241D4B01941A6C42F0805276
:104060001A641B6C03F080530193019B184B02945C
:104070001A6842F480421A601B6803F4804302937A
:10408000029B012308934FF4803309934FF480037C
:104090000F93082310934FF4A8730225119308A8D7
:1040A000072313930E951295FDF75EF80F230393E4
:1040B0004FF4A053069305214FF4805303A80495B1
:1040C00005940793FDF700FA15B030BD00380240A3
:1040D0000070004080B58CB0FCF702FAFFF7AEFF2D
:1040E000142200210DEB020000F007FC00243F4BDE
:1040F00002941A6B3E483F4E42F080021A631A6BDC
:1041000002F080020292029A03941A6B42F00802B3
:104110001A631A6B02F008020392039A04941A6B52
:1041200042F001021A631B6B03F001032246049361
:104130004FF40041049B4FF48069FCF74BFB2E4B7E
:104140002B48069305A94FF40068CDF81490079406
:10415000FCF75AFA294B2648069305A90127CDF802
:1041600014800794FCF750FA4FF4004305A9204847
:104170000593069707940894FCF746FA2246052112
:104180002820FCF7FFF92820FCF730FA2246082106
:104190000520FFF74DF91A4B18600FCE05AD0FC57E
:1041A00096E8070085E80700214605A8FEF7A3FD6D
:1041B000144D154B154918602846FFF7DDFE2B6896
:1041C0000B494A46284698476B68094942462846A3
:1041D000984723464FF420720D49019400970D48EB
:1041E000FFF795FBFEF782FDFEE700BF00380240B7
:1041F000000C0240BC4A0008000031100000111001
:10420000D447002098410020D0430020D93F000827
:10421000DD4A0008B13F00080268034B9A4201D111
:10422000FCF778B9704700BF0010004070470000ED
:1042300007B50F4B00220092596C41F4804159643C
:10424000596C01F48041009100990192196C41F080
:10425000805119641B6C03F0805301930F216FF0A0
:104260000100019BFCF78EF903B05DF804FB00BF71
:104270000038024030B5014689B000223620FCF7F4
:1042800081F93620FCF7B2F90025154B02951A6C1E
:10429000144C42F010021A641B6C03F010030293DA
:1042A00001A903A8029BFDF7BFF9FDF7ADF90E4B7D
:1042B000236040F2E733E36040000C4BB0FBF3F0C7
:1042C0000138606020462561A560FDF7E9FA20B954
:1042D0002046FDF7C8F909B030BD0120FBE700BF5B
:1042E00000380240D84B00200010004040420F0030
:1042F0007047FEE7FEE7FEE7FEE7704708B54FF4BC
:104300008060FCF773FA4FF40060BDE80840FCF7EA
:104310006DBA00000148FDF7BAB900BFD84B0020C4
:104320000148FCF715BB00BFB45E002008B50A4B7E
:104330001968024609B909491960186869460244B2
:104340008A4206D900F094FA0C2303604FF0FF3044
:1043500008BD1A6008BD00BFC0430020C064002033
:104360000F49D1F8883043F47003C1F888300D4B01
:104370001A68002042F001021A6098601A6822F060
:10438000847222F480321A60074A5A601A6822F452
:1043900080221A60D8604FF000638B60704700BFC6
:1043A00000ED00E0003802401030002408B5002283
:1043B0000E490F48FEF7FFF808B1FFF737FF0D4928
:1043C0000B48FEF70DF908B1FFF730FF0A4908481E
:1043D000FEF7B0F808B1FFF729FF0548FEF707F927
:1043E00018B1BDE80840FFF721BF08BD2C0100202F
:1043F000184C0020040000201C0100200020704701
:104400000020704710B5054C01462046FEF7A1F884
:104410002046FEF7BDF8002010BD00BF184C00205C
:1044200010B5064C064900222046FEF78AF80549D9
:104430002046FEF78EF8002010BD00BF184C00206B
:10444000B4560020B44E002010B5094CD4F8903278
:10445000D3F814320A4643B901462046FEF771F8F4
:104460002046BDE81040FEF77AB8012010BD00BF1D
:10447000184C002030B5044689B01422002103A84E
:1044800000F03BFA2368B3F1A04F2ED1184C194825
:1044900000250195236B43F001032363236B03F095
:1044A00001030193019B4FF4C05303930223049330
:1044B0000323069303A90A230793FCF7A5F8636B6C
:1044C00043F0800363630295636C43F48043636449
:1044D000636C03F48043029343202A460521029B28
:1044E000FCF750F84320FCF781F809B030BD00BF5D
:1044F000003802400000024000F57171D0F8040459
:10450000FEF78CB81C2303FB0103D0F80404D3F896
:104510000822FEF7B0B81C2303FB0103D0F8040403
:104520009A6CFEF7E2B8D0F80404FEF773B9C168DC
:1045300010B5044621B1022901D0FFF777FE012111
:10454000D4F80404FEF754F9D4F80404BDE810408C
:10455000FEF727B910B50446D0F80404FEF74BF96E
:104560002268D2F8003E43F00103C2F8003E236AFD
:1045700023B1034A136943F00603136110BD00BF62
:1045800000ED00E0D0F80404FEF73EB9D0F80404D2
:10459000FEF74EB9D0F80404FEF748B9D0F8040489
:1045A000FEF748B9D0F80404FEF746B908B502781A
:1045B00032BB144B0421C3F80404C0F898324FF006
:1045C000A04083E8030002211846D9601A6199616E
:1045D000DA611A625A62DA621A63FCF713F908B1F7
:1045E000FFF724FE80210748FCF7B8FD4022002198
:1045F0000448FCF792FD802201210248FCF78DFD62
:10460000002008BDB45E002008B5D0F89802FCF781
:1046100080F903289ABF024B185C022008BD00BF36
:104620000A4B000810B51C46D0F8980213462246E3
:10463000FCF75CFC03289ABF014B185C022010BDFC
:104640000A4B000808B5D0F89802FCF784FC032850
:104650009ABF024B185C022008BD00BF0A4B00083D
:1046600008B5D0F89802FCF7ECFC03289ABF024B7F
:10467000185C022008BD00BF0A4B000808B5D0F83E
:104680009802FCF718FD03289ABF024B185C022021
:1046900008BD00BF0A4B000811F0800FD0F8983217
:1046A0004FF01C021BBF01F07F0102FB013102FB36
:1046B000013191F83E0008BF91F8FE0170470000FB
:1046C00008B5D0F89802FCF7FDFB03289ABF024B0F
:1046D000185C022008BD00BF0A4B000808B5D0F8DE
:1046E0009802FCF78EFC03289ABF024B185C02204C
:1046F00008BD00BF0A4B000808B5D0F89802FCF7C7
:1047000054FC03289ABF024B185C022008BD00BF6E
:104710000A4B0008D0F89802FCF76BBC12230B8000
:10472000004870474801002004230B800048704770
:104730005C010020002330B51D46DCB2A24200D847
:1047400030BD040F092C94BF3034373401F81340C6
:1047500001EB4304000165700133EEE71A2310B545
:104760000B80094B186808331B68C0180AD0074B28
:1047700007491C680822FFF7DDFF0422054920468F
:10478000FFF7D8FF044810BD107AFF1F147AFF1FEF
:1047900062010020720100206001002010B5044C6D
:1047A00004480A462146FEF743FA204610BD00BFE2
:1047B000BC620020274B000810B5044C04480A4690
:1047C0002146FEF735FA204610BD00BFBC6200202E
:1047D0003A4B000810B5044C04480A462146FEF73F
:1047E00027FA204610BD00BFBC6200200E4B000817
:1047F00010B5044C04480A462146FEF719FA204633
:1048000010BD00BFBC620020194B0008DFF834D097
:10481000002103E00C4B5B58435004310B480C4B18
:1048200042189A42F6D30B4A02E0002342F8043BB6
:10483000094B9A42F9D3FFF793FD00F01FF8FFF7F9
:1048400049FC704700000220604B00080000002077
:10485000E0010020E0010020C0640020FEE700002D
:10486000024B0A460146186800F04FB87C01002050
:10487000014B1868704700BF7C01002070B50D4ED9
:104880000D4CA41BA4100025A54209D10B4E0C4CC5
:1048900000F008F9A41BA4100025A54205D170BDA5
:1048A00056F8253098470135EEE756F825309847F9
:1048B0000135F2E7584B0008584B0008584B0008E8
:1048C0005C4B0008024B0146186800F07BB800BF43
:1048D0007C010020024B0146186800F025B800BF9B
:1048E0007C01002010B5431E0A44914200D110BD46
:1048F00011F8014B03F8014FF7E7024403469342D6
:1049000000D1704703F8011BF9E738B502FB01F449
:10491000214600F057F8054618B122460021FFF75E
:10492000ECFF284638BD000038B50546002945D0C3
:1049300051F8043C0C1F002BB8BFE41800F0B0F88D
:104940001F4A1368104633B9636014602846BDE8F7
:10495000384000F0A6B8A3420CD9216862189342EF
:1049600004BF1A685B68636004BF52182260046069
:10497000ECE713465A680AB1A242FAD919685818E6
:10498000A0420BD120680144581882421960DDD141
:10499000106852685A6001441960D7E702D90C23A5
:1049A0002B60D3E7206821188A4204BF116852683F
:1049B000626004BF091821605C60C7E738BD00BFB2
:1049C000C443002070B5CD1C25F0030508350C2D1F
:1049D00038BF0C25002D064601DBA94203D90C2364
:1049E0003360002070BD00F05BF8234A1468214654
:1049F00091B9224C23681BB9304600F041F8206081
:104A00002946304600F03CF8431C26D10C23336085
:104A1000304600F046F8E4E70B685B1B1AD40B2B1A
:104A20000FD90B60CD50CC18304600F03AF804F1A5
:104A30000B00231D20F00700C31A1BD05A42E2507E
:104A400070BD8C420DBF63684B686360136018BF14
:104A50000C46E9E70C464968CAE7C41C24F0030485
:104A6000A04205D0211A304600F00AF80130CDD01E
:104A70002560D9E770BD00BFC4430020C8430020B3
:104A800038B5064C0023054608462360FFF74EFC68
:104A9000431C02D1236803B12B6038BDBC640020E5
:104AA00070477047F8B500BFF8BC08BC9E46704719
:0C4AB000F8B500BFF8BC08BC9E4670477B
:104ABC00E64A00080D40000800000000000000005D
:104ACC0080000000000000000000000049444C453C
:104ADC0000693263207461736B0064656661756C88
:104AEC00745461736B0000000000000000000102B0
:104AFC000304060708090000000001020304000279
:104B0C00010243444320436F6E666967004344438C
:104B1C0020496E746572666163650053544D696318
:104B2C00726F656C656374726F6E69637300535456
:104B3C004D3332205669727475616C20436F6D5021
:044B4C006F72740010
:084B5000B0B6FF7F0100000078
:044B5800B50100089B
:044B5C0091010008BB
:104B6000010000008B240008492400088D23000860
:104B700000000000C52200084B2300081D23000888
:104B8000000000000000000000000000F922000802
:104B9000ED22000805230008112300080902430044
:104BA000020100C0320904000001020201000524D4
:104BB000001001052401000104240202052406005E
:104BC000010705820308001009040100020A000021
:104BD00000070501024000000705810240000000B7
:104BE00009024300020100C0320904000001020270
:104BF0000100052400100105240100010424020223
:104C000005240600010705820308001009040100BD
:104C1000020A0000000705010200020007058102E8
:104C2000000200000A06000200000040010000002F
:104C300009074300020104C0320904000001020216
:104C400001000524001001052401000104240202D2
:104C5000052406000107058203080010090401006D
:104C6000020A00000007050102400000070581025A
:104C700040000000AAAAAAAA0024F40021440008C7
:104C8000FD43000801440008054400081D470008D2
:104C9000294700089D470008B94700085D470008FC
:104CA000D5470008F1470008120100020202004047
:104CB00083044057000201020301000004030904B9
:104CC0001A030000000000000000000000000000C7
:104CD0000000000000000000000000008001002033
:104CE00000000000000000000000000000000000C4
:104CF00000000000000000000000000000000000B4
:104D000000000000000000000000000000000000A3
:104D10000000000000000000000000000000000093
:104D20000000000000000000000000000000000083
:104D30000000000000000000000000000000000073
:040000050800480D9A
:00000001FF
